:100E58000A128A112F2F03138316071487140715F4
:100E680087150716880183120708A0002008103983
:100E7800A100A10CA10CA10CA10C21080139A10011
:100E880020080839A200A20CA20CA20C22080139E1
:100E9800A20020080439A300A30CA30C23080139DD
:100EA800A30020080239A400A40C24080139A400D6
:100EB80020080139A50025080139A50020081039A6
:100EC800A600A60CA60CA60CA60CA6092608013995
:100ED800A60020080839A700A70CA70CA70CA7098B
:100EE80027080139A70020080439A800A80CA80C75
:100EF800A80928080139A80020080239A900A90C66
:100F0800A90929080139A90020080139AA00AA0954
:100F18002A080139AA0023082905BA00AA082105C8
:100F2800CA00AA0822053A044A04AB002B189D2FD0
:100F38009F2F0814A12F0810A12F2908280527057D
:100F48002605AC00250827052C04BC003C18AD2F4D
:100F5800AF2F8814B12F8810B12F23082705AD00B3
:100F680024082705BD00250828052D043D04CD00CB
:100F78004D18BF2FC12F0815C32F0811C32F2A08DA
:100F8800290528052705AE002A0821052E04BE00DC
:100F98003E18CF2FD12F8815D32F8811D32F24088F
:100FA8002705AF00250828052F04BF003F18DD2FAF
:100FB800DF2F0816E12F0812E12F2A082105B000BB
:100FC8002A0822053004CE004E18EB2FED2F881684
:100FD800EF2F8812EF2F2A0829052805270526054F
:100FE800B10024082105B104B2003218FC2FFE2FED
:080FF8000817382F0813382FE9
:02400E00B13FC0
:00000001FF
